:100000000C94F2050C9439060C9439060C943906BC
:100010000C9439060C9439060C9439060C94390664
:100020000C9439060C9439060C94AC250C947F265C
:100030000C94161D0C9439060C9439060C94390650
:100040000C9439060C9439060C9439060C94390634
:100050000C9439060C947E1D0C9439060C943906C8
:100060000C9439060C9439060C9439060C94390614
:100070000C9439060C9439060C9439060C94390604
:100080000C9439060C9439060C9439060C943906F4
:100090000C9439060C9439060C9439060C943906E4
:1000A0000C9439060C9439060C9439062900140076
:1000B0001A000800150017001C0018000C001200A0
:1000C00013002A002B0004001600070009000A0094
:1000D0000B000D000E000F0033003400E1001D0086
:1000E0001B00060019000500110010003600370043
:1000F00038002800E000000000410042E200E30078
:100100005000510052004F000000E50000000000C8
:100110000000000000002C00004200410000000030
:100120000000000001001E001F002000210022002E
:10013000230024002500260027004C0001004E006B
:100140004B004A004D002D022E002D002E022602EB
:10015000270231003900AA00A900010001000100B6
:100160000100010001000100010001000100000088
:100170000100010001000100010001000100010077
:10018000000001000000000000000000000001006D
:1001900001000100000000000000000000703A00B3
:1001A0003B003C003D003E003F004000410042005B
:1001B0004300440001001E021F022002210222020D
:1001C0002302240225022F0030003102010030708A
:1001D00031703670377034700100010001002F0259
:1001E000300001000100000001003870397001008A
:1001F00001000100010001000000010000000000FA
:1002000000000000000001000100010000000000EB
:1002100000000000010001000100010001000100D8
:1002200001000100010001000100010001000100C6
:1002300001000100010001000100010001000100B6
:1002400001000100010001000100010001000100A6
:100250000100010001000100010001000100000097
:100260000100010001000100010001000100010086
:10027000000001000000000000000000000001007C
:10028000010001000000000000000000010001006A
:100290000100010001000100010001000100010056
:1002A0000100010001000100010001000100010046
:1002B0000100010001000100010001000100010036
:1002C0000100010001000100010001000100010026
:1002D0000100010001000000010001000100010017
:1002E0000100010001000100000001000000000009
:1002F00000000000000001000100010000000000FB
:1003000000000000010001000100010001000100E7
:1003100001000100010001000100010001000100D5
:1003200001000100010001000100010001000100C5
:1003300001000100010001000100010001000100B5
:1003400001000100010001000100010001000000A6
:100350000100010001000100010001000100010095
:10036000000001000000000000000000000001008B
:100370000100010000000000000000000100010079
:100380000100010001000100010001000100010065
:100390000100010001000100010001000100010055
:1003A0000100010001000100010001000100010045
:1003B0000100010001000100010001000100010035
:1003C0000100010001000000010001000100010026
:1003D0000100010001000100000001000000000018
:1003E000000000000000010001000100000000000A
:1003F00000000000010001000100010001000100F7
:1004000001000100010001000100010001000100E4
:1004100001000100010001000100010001000100D4
:1004200001000100010001000100010001000100C4
:1004300001000100010001000100010001000000B5
:1004400001000100010001000100010001000100A4
:10045000000001000000000000000000000001009A
:100460000100010000000000000000000100010088
:100470000100010001000100010001000100010074
:100480000100010001000100010001000100010064
:100490000100010001000100010001000100010054
:1004A0000100010001000100010001000100010044
:1004B0000100010001000000010001000100010035
:1004C0000100010001000100000001000000000027
:1004D0000000000000000100010001000000000019
:1004E0000000000001000100010001000100010006
:1004F00001000100010001000100010001000100F4
:1005000001000100010001000100010001000100E3
:1005100001000100010001000100010001000100D3
:1005200001000100010001000100010001000000C4
:1005300001000100010001000100010001000100B3
:1005400000000100000000000000000000000100A9
:100550000100010000000000000000000100010097
:100560000100010001000100010001000100010083
:100570000100010001000100010001000100010073
:100580000100010001000100010001000100010063
:100590000100010001000100010001000100010053
:1005A0000100010001000000010001000100010044
:1005B0000100010001000100000001000000000036
:1005C0000000000000000100010001000000000028
:1005D0000000000001000100010001000100010015
:1005E0000100010001000100010001000100010003
:1005F00001000100010001000100010001000100F3
:1006000001000100010001000100010001000100E2
:1006100001000100010001000100010001000000D3
:1006200001000100010001000100010001000100C2
:1006300000000100000000000000000000000100B8
:1006400001000100000000000000000001000100A6
:100650000100010001000100010001000100010092
:100660000100010001000100010001000100010082
:100670000100010001000100010001000100010072
:100680000100010001000100010001000100010062
:100690000100010001000000010001000100010053
:1006A0000100010001000100000001000000000045
:1006B0000000000000000100010001000000000037
:1006C0000000000001000100010001000100010024
:1006D0000100010001000100010001000100010012
:1006E0000100010001000100010001000100010002
:1006F00001000100010001000100010001000100F2
:1007000001000100010001000100010001000000E2
:1007100001000100010001000100010001000100D1
:1007200000000100000000000000000000000100C7
:1007300001000100000000000000000001000100B5
:1007400001000100010001000100010001000100A1
:100750000100010001000100010001000100010091
:100760000100010001000100010001000100010081
:100770000100010001000100010001000100010071
:100780000100010001000000010001000100010062
:100790000100010001000100000001000000000054
:1007A0000000000000000100010001000000000046
:1007B0000000000001000100010001000100010033
:1007C0000100010001000100010001000100010021
:1007D0000100010001000100010001000100010011
:1007E0000100010001000100010001000100010001
:1007F00001000100010001000100010001000000F2
:1008000001000100010001000100010001000100E0
:1008100000000100000000000000000000000100D6
:1008200001000100000000000000000064321464B8
:100830003214783C1E1E140A05000000000101015C
:100840000202030405050607090A0B0C0E0F11121C
:10085000141517191B1D1F212325282A2C2F31346D
:1008600036393B3E414346494C4F5255585A5D61DB
:1008700064676A6D707376797C7F8386898C8F92CA
:1008800095989B9EA2A5A7AAADB0B3B6B9BCBEC1B0
:10089000C4C6C9CBCED0D3D5D7DADCDEE0E2E4E6FD
:1008A000E8EAEBEDEEF0F1F3F4F5F6F8F9FAFAFB1D
:1008B000FCFDFDFEFEFEFFFFFFFFFFFFFFFEFEFE55
:1008C000FDFDFCFBFAFAF9F8F6F5F4F3F1F0EEEDC4
:1008D000EBEAE8E6E4E2E0DEDCDAD7D5D3D0CECB53
:1008E000C9C6C4C1BEBCB9B6B3B0ADAAA7A5A29EC5
:1008F0009B9895928F8C898683807C797673706DB6
:100900006A6764615D5A5855524F4C494643413EAF
:100910003B393634312F2C2A282523211F1D1B1942
:1009200017151412110F0E0C0B0A09070605050402
:1009300003020201010100000000000000000101AB
:10094000010101010101010202020202020202028E
:10095000030303030303030304040404040405055D
:10096000050505060606060607070707080808081E
:100970000909090A0A0A0A0B0B0B0C0C0C0D0D0DC8
:100980000E0E0F0F0F101011111112121313141459
:10099000151516161717181819191A1A1B1C1C1DCD
:1009A0001D1E1F1F20202122222324252526272724
:1009B00028292A2B2B2C2D2E2F2F30313233343552
:1009C00036363738393A3B3C3D3E3F40414243445E
:1009D000464748494A4B4C4D4F5051525355565734
:1009E000585A5B5C5E5F606263646667696A6C6DDF
:1009F0006E707173747678797B7C7E808183848657
:100A0000888A8B8D8F91929496989A9B9D9FA1A393
:100A1000A5A7A9ABADAFB1B3B5B7B9BBBDBFC1C495
:100A2000C6C8CACCCFD1D3D6D8DADCDFE1E4E6E859
:100A3000EBEDF0F2F5F7FAFCFF12036B00650079BD
:100A40000062006F00610072006400000016037114
:100A5000006D006B006200750069006C0064006549
:100A600000720000000403090409026D0004010083
:100A7000A0FA09040000010301010009211101008D
:100A8000012240000705810308000A090401000152
:100A900003010200092111010001224D0007058216
:100AA0000308000A090402000103000000092111E3
:100AB0000100012236000705830308000A09040328
:100AC0000001030000000921110100012239000783
:100AD0000584032000011201100100000008EDFE52
:100AE000606001000102000105010906A10105077E
:100AF00019E029E71500250195087501810205080F
:100B0000190129059505750191029501750391015A
:100B10000507190029F71500250195F875018102CF
:100B2000C005010980A10185021601002603001AF3
:100B300081002A8300751095018100C0050C090110
:100B4000A1018503160100269C021A01002A9C02BD
:100B5000751095018100C005010902A1010901A1DB
:100B60000005091901290515002501950575018163
:100B700002950175038101050109300931158125AF
:100B80007F95027508810609381581257F950175C5
:100B9000088106050C0A38021581257F9501750824
:100BA0008106C0C005010906A101050719E029E772
:100BB00015002501950875018102950175088101CF
:100BC000050819012905950575019102950175031F
:100BD00091010507190029FF150026FF00950675EC
:100BE000088100C011241FBECFEFDAE0DEBFCDBF09
:100BF00004B603FE27C08091910290919202A091C9
:100C00009302B09194028730904BA740B04BD1F43F
:100C100010929102109292021092930210929402FA
:100C200014BE84B7877F84BF0FB6F894A8958091CF
:100C30006000886180936000109260000FBEE0E069
:100C4000F8E3099511E0A0E0B1E0EAEAF3E502C0BB
:100C500005900D92AA33B107D9F722E0AAE3B1E0DB
:100C600001C01D92A139B207E1F70E94F9220C944C
:100C7000D3290C94000090E080E008950895089531
:100C800081E00895089581E008950C9440060E9443
:100C900088152FEF84E39CE0215080409040E1F7DD
:100CA00000C000000C94A31DFF920F931F93CF93DD
:100CB000DF938C01FC01C081D18180918B01811176
:100CC00048C08281882309F43FC0CE010E94EF1AF8
:100CD000F82E682FCE010E94951ABE018F2D0E941A
:100CE000F007EC01B8010E944506882309F478C09A
:100CF000B801CE010E94000A882309F471C0C633EE
:100D0000F0E7DF0709F484C0C0F5C53190E7D907E3
:100D100028F5C230E0E7DE0708F099C0C115F0E71A
:100D2000DF0709F458C0C130D04709F460C081E042
:100D300080933C0180933D01C801DF91CF911F91C9
:100D40000F91FF900C944306CE010E94C41AF82E16
:100D5000C4CFCE010E94EF1ABE01C1CFC43390E7C9
:100D6000D90709F44EC0C533D04709F7F80182818D
:100D70008823B1F10E941B0E33C0CA33F0E7DF07AE
:100D800009F457C070F4F8018281C833F0E7DF0737
:100D900009F44AC008F443C0882311F10E945F0D92
:100DA0001FC0CC33E0E7DE0709F4D5C008F448C023
:100DB000CD33D04709F0BBCFF8018281882309F4F5
:100DC000F1C010923D010E94481D90933B01809319
:100DD0003A0180E2CDC0F801828181110E9447066C
:100DE00080E0DF91CF911F910F91FF900895F8015E
:100DF00082818823A9F3809119028160809319026E
:100E0000EFCFF8018281882359F30E94250EE8CFA5
:100E1000F8018281882321F30E94100DE1CF8823FD
:100E2000F9F20E94280DDCCF8823D1F20E94470DF1
:100E3000D7CFF8018281882399F20E94770DD0CF15
:100E4000F8018281882361F20E948F0DC9CFF801D9
:100E50008281882309F470CF0E94A71C811102C0EF
:100E60000E94861C0E94C41C90E090938302809391
:100E70008202FE01E350F047809182028160E231FC
:100E8000F105C8F4EA5BF84F0C948529580764070C
:100E900068076C077007740778077C07800784076A
:100EA00088078C079007940798079C07A007A4075A
:100EB00080918202826080938202809182020E94ED
:100EC000C81C0E9488158CCF809182028460F3CF69
:100ED000809182028860EFCF809182028061EBCFA7
:100EE000809182028062E7CF809182028064E3CFAA
:100EF000809182028068DFCF809182028460EACF95
:100F0000809182028E7FD7CF809182028D7FD3CF56
:100F1000809182028B7FCFCF80918202877FCBCF5F
:100F2000809182028F7EC7CF809182028F7DC3CF56
:100F3000809182028F7BBFCF809182028F77BBCF5F
:100F4000809182028B7FEACF90918202892F97FB5A
:100F500087F98058B0CFF8018281882361F0109220
:100F60003C010E94481D90933B0180933A0182E02E
:100F70000E94121335CF80913C0181110FC08091E6
:100F80003A0190913B010E94541D883C910530F438
:100F900086E20E94E71186E20E94C31282E00E946C
:100FA00019131ECF80913D0181110FC080913A012C
:100FB00090913B010E94541D883C910530F487E2DA
:100FC0000E94E71187E20E94C31280E2E8CF0C94EE
:100FD0004F0A0C94510A0C9442060C94EB070895A6
:100FE000972F70E02CE0929F600D711D1124FB0182
:100FF0009CE3899FE00DF11D1124EE0FFF1FE455C6
:10100000FF4F859194910895FC01EE0FFF1FE45D61
:10101000F74F8591949108950E94F0070E947F09EF
:10102000811520E4920708F08DC0811540E39407F4
:1010300008F0E8C0803E910508F071C0803C910541
:1010400008F0CCC0883A910580F4853A910508F003
:10105000CAC08130910509F46EC020F0843091053A
:1010600008F069C090E080E008958D3B9105D0F7CD
:10107000883A910509F404C1893A910509F403C13C
:101080008A3A910509F402C18B3A910509F401C12C
:101090008C3A910509F400C18B3B910509F4FFC01E
:1010A0008C3B910509F4FEC08D3A910509F4FDC011
:1010B000803B910509F4FCC08E3A910509F4FBC010
:1010C0008F3A910509F4FAC0813B910509F4F9C002
:1010D000823B910509F4F8C0833B910509F4F7C000
:1010E000843B910509F4F6C0853B910509F4F5C0F0
:1010F000863B910509F4F4C0873B910509F4F3C0E0
:10110000883B910509F4F2C0893B910509F4F1C0CF
:101110008A3B910509F4F0C080E094E408958F3F84
:10112000910509F048F4803F910508F067C0883EBA
:10113000910508F097CF0895811520E2920708F0F5
:101140005FC00895811543E5940760F5811522E598
:10115000920708F062C0811541E5940708F058C075
:10116000811520E5920708F450C09C0154E03695A3
:1011700027955A95E1F7922F9370482F437021E0FD
:1011800030E002C0220F331F4A95E2F73C68392B4A
:1011900086958695837040E2849FC0011124822B3E
:1011A000932B0895811545E5940750F4811524E5A6
:1011B000920708F446C0982F8827846F906A089594
:1011C000811546E5940708F450C09C0130569F7085
:1011D0002115304108F046CF90620895805C910956
:1011E0000E9404080895853A910509F443C0863A9F
:1011F000910509F042C082E890E408959065089551
:101200009F70EECF9927906C08959F70906A089513
:10121000982F8827816F906A0895AC0143705527F5
:1012200021E030E002C0220F331F4A95E2F7869595
:10123000869540E2849FC0011124822B932B9C68E9
:101240000895AC014370552721E030E002C0220F21
:10125000331F4A95E2F78695869540E2849FC00148
:101260001124822B932B9A680895982F882788271A
:101270009F71B2CF81E890E4089583E890E40895E7
:1012800082EE94E4089589EE94E408958AEE94E45D
:10129000089585EB94E4089586EB94E4089583EB38
:1012A00094E4089584EB94E4089587EB94E408951E
:1012B0008CEC94E408958DEC94E4089583E895E42F
:1012C00008958AE895E4089582E995E4089584E90B
:1012D00095E4089581E296E4089583E296E4089502
:1012E00084E296E4089585E296E4089586E296E421
:1012F000089587E296E408958AE296E41CCF823846
:10130000910549F1B0F48133910509F45CC048F4CA
:101310008932910509F452C08A32910509F458C006
:1013200008958533910509F444C08933910599F0F6
:101330000895833E910531F138F4803E910591F096
:10134000823E9105B1F00895863E910511F1873EE8
:10135000910541F10895209182022370C9F080EE39
:1013600090E008952091820220FF12C089E390E06E
:1013700008952091820222FF0BC024FF2EC090E02E
:1013800080E008952091820222FD2AC024FDF7CF3B
:1013900008952091820223FFFBCF24FDF0CF87EE3A
:1013A00090E008952091820223FFF0CF86EE90E036
:1013B00008952091820225FD16C008952091820291
:1013C00025FD14C008952091820226FD12C00895C3
:1013D0002091820226FD10C0089583EE90E00895CA
:1013E00082EE90E0089589E290E0089585E390E030
:1013F00008958AE290E0089581E390E0C9CF0895CE
:101400000F931F93CF938C01FB018281811106C042
:10141000C1E08C2FCF911F910F910895C0914B0186
:10142000C11125C00531104799F70E94FF0981E0DD
:1014300080934B010E94481D90934A01809349017B
:1014400010923E011092400110923F011092420111
:1014500010924101109244011092430110924601F2
:10146000109245011092480110924701D2CF80910D
:10147000490190914A010E94541D883C910540F613
:1014800080913E01E82FF0E0EE0FFF1FE15CFE4F80
:10149000118300838F5F80933E01C0E0BACF0C942C
:1014A0003E060C943F06CF93DF9385B7806885BFD7
:1014B00085B7806885BFA0E2B1E045E251E0C1E0B8
:1014C000D0E08D91E82FE295EF70F0E061A18F7090
:1014D0009E0101C0220F8A95EAF7922F90959623DC
:1014E00091A382A1822B82A34A175B0751F7A4E143
:1014F000B1E061E070E08D91E82FE295EF70F0E0EF
:1015000041A18F709B0101C0220F8A95EAF7922FAB
:101510009095942391A382A1822B82A381E0A03293
:10152000B80749F7109257011092560110924D01D9
:1015300010924C01109259011092580110924F01D3
:1015400010924E0110925B0110925A0110925101BB
:101550001092500110925D0110925C0110925301A3
:101560001092520110925F0110925E01109255018B
:1015700010925401DF91CF910C94E7076F927F9204
:101580009F92AF92BF92CF92DF92EF92FF920F9312
:101590001F93CF93DF93CCE4D1E000E211E0EE247F
:1015A000E394F12CBB24B394C880D98019821882AB
:1015B000D8018D918D01E82FE295EF70F0E091A1B7
:1015C0008F70970101C0220F8A95EAF7892F822B2D
:1015D00081A382A1A22EA0948A2182A3B0EABA9507
:1015E000F1F784E1682E81E0782E90E080E0D3016D
:1015F0007D913D01472F42954F7050E0DA01909662
:101600009C90488159817F70D70102C0AA0FBB1FEF
:101610007A95E2F7BD01692109F06FC0B701082E84
:1016200002C0660F771F0A94E2F7462B572B5983A7
:10163000488301968C309105D1F681A18A2181A33E
:1016400082A1282B22A388819981C816D90641F04E
:10165000B09260010E94481D9093620180936101E5
:101660002296B1E005321B0709F09ECF8091600100
:10167000882391F180916101909162010E94541D33
:10168000069750F180914C0190914D019093570134
:101690008093560180914E0190914F019093590192
:1016A00080935801809150019091510190935B017A
:1016B00080935A01809152019091530190935D0162
:1016C00080935C01809154019091550190935F014A
:1016D00080935E01109260010E94E90781E0DF9132
:1016E000CF911F910F91FF90EF90DF90CF90BF901F
:1016F000AF909F907F906F90089570E060E095CFDD
:10170000E82FF0E0EE0FFF1FEA5AFE4F8081918133
:101710000895089535B1242F2095232335B1432B07
:101720003FB7F894FC01680F791FE617F70711F42B
:101730003FBF0895819198E045B9000000C087FF40
:1017400025B9880F000000C000C000C025B900C046
:101750009A9591F7EACF24B1242B24B99B01220F4B
:10176000331F620F731F0E948A0B87EC90E0019772
:10177000F1F700C00000089542E00C94AB0BCF924B
:10178000DF92EF92FF920F931F93CF93DF93E901C4
:10179000662309F466C0E42EF12CEFEFF0E0E61BBF
:1017A000F109EE9D8001EF9D100DFE9D100D11249D
:1017B000212FE12FFF27EE1AFF0A5CE3C52ED12C63
:1017C000B6010E945D29FB01BC01E69EC001E79EB7
:1017D000900DF69E900D1124B6010E945D29E23015
:1017E000F10589F168F4812F262F210F309781F0C0
:1017F000242F461B319761F080E020E040E008C0D4
:10180000E430F10551F128F1842F861B3597A1F7BB
:10181000E42FF0E0E75CF64F4491E22FF0E0E75C64
:10182000F64F9491E82FF0E0E75CF64FE49149839E
:101830009883EA83DF91CF911F910F91FF90EF90F2
:10184000DF90CF900895862F810FE42F412F2E2F08
:10185000DFCFE42FE61B842FF9CF842F462F410FD3
:10186000D7CF842F242FD4CF88E090E00C949329F5
:10187000AB01BC0188E090E00C94B129E6E4F2E011
:1018800083E08083109247028FEF8283838360918D
:1018900046027091470280914802909149020C944F
:1018A000380C80914602EEE4F2E080FF06C060E171
:1018B00070E08EE492E00C94BC0B118210821282D4
:1018C000339682E0EE37F807C1F7F1CFEEE4F2E0AD
:1018D000818360834283339692E0EE37F907C1F744
:1018E0000C94510CEF92FF920F931F93CF93DF93C1
:1018F00000D01F92CDB7DEB7182FE92EF62E042F99
:101900008091460290914702A0914802B09149020D
:1019100080934A0290934B02A0934C02B0934D02E5
:101920008091460280FF1FC09E012F5F3F4F812F95
:101930009E2D0E94BF0B80914A0210FB87F9809375
:101940004A02169580914B028078812BE0FA87F944
:1019500080934B02F0924C0200934D024B816981BF
:101960008A810E94660C0F900F900F90DF91CF91AB
:101970001F910F91FF90EF9008950F931F93CF93B6
:10198000DF93EC01062F142F9091460290FF43C085
:10199000892F8E77823021F5CE010E94720C8091C2
:1019A0004602C0FB87F980934602C69580914702A4
:1019B0008078C82BD0FBC7F9C09347020093480238
:1019C000109349026091460270914702809148024B
:1019D00090914902DF91CF911F910F910C94380C97
:1019E000892F86958F732EE3280F2F73243018F4D8
:1019F00010914902D4CF865C8F73893080F6991F8D
:101A00009927991FD0914702CD2FCC0FC92BD7FB17
:101A1000DD27D0F9C4CFDF91CF911F910F910895A9
:101A2000E6E4F2E02081221F2227221F30914702A4
:101A3000432F440F842F822B37FB992790F9089668
:101A400068E671E00E947129438162810C94BD0CAB
:101A500020914602221F2227221F30914702432F46
:101A6000440F842F822B37FB992790F988309105FA
:101A700040F4805A9E4F40914902609148020C9474
:101A8000BD0C089768E671E00E947129F4CF60915F
:101A90004802683F90F4685F80914602881F88275B
:101AA000881F90914702292F220F97FB992790F9C1
:101AB00040914902822B0C94BD0C6FEFEDCF6091E9
:101AC0004802683090F0685080914602881F88274D
:101AD000881F90914702292F220F97FB992790F991
:101AE00040914902822B0C94BD0C60E0EDCF4091F7
:101AF0004902483F90F4485F80914602881F88273A
:101B0000881F90914702292F220F97FB992790F960
:101B100060914802822B0C94BD0C4FEFEDCF4091A9
:101B20004902483090F0485080914602881F88272B
:101B3000881F90914702292F220F97FB992790F930
:101B400060914802822B0C94BD0C40E0EDCF909147
:101B5000460290FF3BC09178811126C0926090931D
:101B6000460260914602709147028091480290912E
:101B700049020E94380C80914602982F9E7792303D
:101B8000D9F410927801881F8827881F9091470206
:101B9000292F220F97FB992790F9409149026091D4
:101BA0004802822B0C94BD0C893110F09063D7CF82
:101BB0008F73880F982BD3CF982F9695925C9F7335
:101BC000963108F791E090937801DDCF08958091E8
:101BD000190281608093190281E0809379010E944B
:101BE000A71C811104C00E94861C0E943E0C0E940A
:101BF000340C60934602709347028093480290939E
:101C000049026E7761F40E943E0C0E94340C60938E
:101C1000460270934702809348029093490281E004
:101C2000809378018091460280FF04C086958F736F
:101C30000C94A70D08958091460286958F738F5F4F
:101C4000893108F081E00C94A70D90914602892F0C
:101C50008E7F90FF81608093460260914602709172
:101C6000470280914802909149020E94380C80916D
:101C7000460280FF04C086958F730C94A70D1092C6
:101C800078012FEF80E792E0215080409040E1F70B
:101C900000C000000C94510CCF93C82F80917601A6
:101CA000909177010E94541DEC2FF0E0EB5CF74F10
:101CB000E491E817190609F010F50E94481D909369
:101CC000770180937601E0917501F0E0E75CF74FD2
:101CD000449180914602881F8827881F909147026F
:101CE000292F220F97FB992790F960914802822BA8
:101CF0000E94720C809175018F5F80937501CF9166
:101D00000895CF93C82F80917301909174010E9420
:101D1000541DEC2FF0E0EE5CF74FE491E817190644
:101D200009F0E8F40E94481D9093740180937301B8
:101D30004091490260914802809171019091720135
:101D40000E94720C8091710190917201019668E677
:101D500071E00E945D299093720180937101CF918F
:101D60000895DF92EF92FF920F931F93CF93DF932B
:101D7000D82E80916F01909170010E94541DED2D1D
:101D8000E695F0E0EE5CF74FE491E817190609F0EC
:101D9000A8F50E94481D9093700180936F010EE496
:101DA00012E0D0E0C0E088E6E82EFF24F3948091B2
:101DB0006D0190916E018C0F9D1FB7010E945D29EE
:101DC000980140914902609148020E94BF0B6696BB
:101DD0000D5F1F4FC03681E0D80749F70E94510CB4
:101DE00080916D0190916E01D0FE10C00196B701F7
:101DF0000E945D2990936E0180936D01DF91CF91D8
:101E00001F910F91FF90EF90DF9008950197F2CF0F
:101E1000AF92BF92CF92DF92EF92FF920F931F93F8
:101E2000CF93DF93C82FFF24FA9480FD02C0FF24D4
:101E3000F39480916B0190916C010E94541DC695A2
:101E4000EC2FF0E0E15DF74FE491E817190611F08F
:101E500008F053C00E94481D90936C0180936B0161
:101E6000CEE4D2E010E000E097E0C92ED12C198238
:101E700018821A8287E0A82EB12CE12C80916A0189
:101E80008E0D87FD805F082E000C990B081719072F
:101E9000E9F4209149022A9DC0012B9D900D112447
:101EA000B6010E947129462F80914602881F88271B
:101EB000881F90914702592F550F97FB992790F94A
:101EC0009E0160914802852B0E94BF0BEF0C81E0C0
:101ED000A81AB10899F60F5F1F4F2396003111051C
:101EE00031F60E94510C80916A0191E0F91212C002
:101EF00081110EC08FE080936A01DF91CF911F9115
:101F00000F91FF90EF90DF90CF90BF90AF9008952A
:101F10008150F1CF90E001968F709927ECCFBF925E
:101F2000CF92DF92EF92FF920F931F93CF93DF93A5
:101F3000CDB7DEB7E0970FB6F894DEBF0FBECDBFCA
:101F4000182F80916801909169010E94541DE12F22
:101F5000F0E0E45DF74FE491E817190611F008F09E
:101F600071C00E94481D90936901809368018E01A1
:101F70000F5F1F4FF12CE12C6801F80111821082D4
:101F80001282B12C9091000180916701B99E800D61
:101F9000112480310CF08FE087FD80E0082E000CCA
:101FA000990BE816F906A1F480914602881F88274C
:101FB000881F90914702592F550F97FB992790F949
:101FC00098014091490260914802852B0E94BF0B05
:101FD000B394F7E0BF12D6CF8FEFE81AF80A0D5F7F
:101FE0001F4FE0E1EE16F10441F6AEE4B2E089E005
:101FF00090E09C012F703327F901EE0FFF1FE20FD5
:10200000F31FEC0DFD1D218111962C93119720815A
:102010002C93228112962C93129701961396893154
:10202000910539F70E94510C909100018091670150
:102030009130E1F48A3FB4F489EF809367018FEF28
:1020400080930001E0960FB6F894DEBF0FBECDBFBF
:10205000DF91CF911F910F91FF90EF90DF90CF9084
:10206000BF900895815080936701ECCF87312CF0A9
:1020700086E18093670181E0E3CF8F5FF4CFCF9358
:10208000DF9380916501909166010E94541D883E06
:10209000934028F10E94481D90936601809365014A
:1020A00080916301909164010196817099279093CA
:1020B000640180936301CEE4D2E09E014091490225
:1020C0006091480290E080E00E94BF0B239682E07E
:1020D000CE37D80791F7DF91CF910C94510CDF9157
:1020E000CF91089580917801882371F18091460203
:1020F00086958F739EE3980F9F73943018F48250E7
:102100000C944C0E9AE3980F9F73933018F48650FA
:102110000C94810E97E3980F9F73963018F48950B2
:102120000C94B10E91E3980F9F73963018F48F5072
:102130000C94080F9BE2980F9F73933018F485510D
:102140000C948F0F0C943F10089590937F0180930F
:102150007E010895E0917E01F0917F01309721F09A
:102160000190F081E02D099480E00895E0917E01D6
:10217000F0917F01309721F00280F381E02D0994E6
:102180000895E0917E01F0917F01309721F0048065
:10219000F581E02D0994089520917C0130917D0115
:1021A0002817390771F090937D0180937C01E091AD
:1021B0007E01F0917F01309721F00680F781E02DBC
:1021C0000994089520917A0130917B0128173907ED
:1021D00071F090937B0180937A01E0917E01F09100
:1021E0007F01309721F00084F185E02D0994089556
:1021F00008950C94F8100E943F1D0E94530A0E94FB
:10220000101E0C94E70D5F926F927F928F929F92B7
:10221000AF92BF92CF92DF92EF92FF920F931F93F4
:10222000CF93DF93CDB7DEB72A970FB6F894DEBF12
:102230000FBECDBF0E94BE0A91E8A92E91E0B92E33
:1022400010E000E088248394912C502E802F0E946F
:10225000800B7C01F501C190D1905F01C816D906B1
:1022600009F45EC08091190281FD0E94890B90E003
:1022700080E0CE24DF243401082E02C0660C771CD7
:102280000A94E2F7960126213721232B09F443C053
:102290008E835F82E620F72081E0EF2809F480E05A
:1022A00088870E94481D8160782F9A8789874E8190
:1022B0005F8168858A850E94BD11000F111FF8019A
:1022C000EF57FE4F80819181682679267182608266
:1022D0000E9493200E94AA10909180018917B9F161
:1022E0000E94AA10809380012A960FB6F894DEBF50
:1022F0000FBECDBFDF91CF911F910F91FF90EF9057
:10230000DF90CF90BF90AF909F908F907F906F9015
:102310005F900C94ED0701968C30910509F0ABCFDE
:102320000F5F1F4F0530110509F08FCF8FEF8983A5
:102330008A831B820E94481D8160782F9D838C8335
:1023400049815A816B818D810E94BD11C1CF2A962E
:102350000FB6F894DEBF0FBECDBFDF91CF911F91B6
:102360000F91FF90EF90DF90CF90BF90AF909F9034
:102370008F907F906F905F900895CF93DF93CDB74C
:10238000DEB72B970FB6F894DEBF0FBECDBF4F83DD
:10239000588769877A878B871E821D8285E0FE01B8
:1023A0003796DE01119601900D928A95E1F74981E9
:1023B0005A816B817C818D819E812B960FB6F8941A
:1023C000DEBF0FBECDBFDF91CF910C943A188823AA
:1023D00009F4D8C0823871F40E94AA1081FDD2C0DD
:1023E00089E30E948F1B0E94571C89E30E94CC1B2B
:1023F0000C94571C833859F40E94AA1080FDC2C067
:1024000083E50E948F1B0E94571C83E5EFCF843821
:1024100059F40E94AA1082FDB5C087E40E948F1B68
:102420000E94571C87E4E2CF9CEF980F913A18F472
:102430000E948F1BDDCF90E2980F983050F4877088
:1024400091E001C0990F8A95EAF7892F0E940E1C2E
:10245000CFCF9BE5980F933070F4853A31F0863AF0
:1024600039F083E890E00C94CC1081E890E0FBCF49
:1024700082E890E0F8CF98E5980F953108F082C097
:10248000883A09F440C0893A09F440C08A3A09F40C
:1024900040C08B3A09F440C08C3A09F440C08B3BF1
:1024A00009F440C08C3B09F440C08D3A09F440C0A7
:1024B000803B09F440C08E3A09F440C08F3A09F4D9
:1024C00040C0813B09F440C0823B09F440C0833BDB
:1024D00009F440C0843B09F440C0853B09F440C086
:1024E000863B09F440C0873B09F440C0883B09F4AF
:1024F00040C0893B09F440C08A3B09F440C090E0E9
:1025000080E00C94E21082EE90E0FBCF89EE90E048
:10251000F8CF8AEE90E0F5CF85EB90E0F2CF86EB36
:1025200090E0EFCF83EB90E0ECCF84EB90E0E9CF4D
:1025300087EB90E0E6CF8CEC90E0E3CF8DEC90E081
:10254000E0CF83E891E0DDCF8AE891E0DACF82E95D
:1025500091E0D7CF84E991E0D4CF81E292E0D1CF6E
:1025600083E292E0CECF84E292E0CBCF85E292E0AC
:10257000C8CF86E292E0C5CF87E292E0C2CF8AE27E
:1025800092E0BFCF0895882309F44BC0823871F4DC
:102590000E94AA1081FF45C089E30E948F1B0E9400
:1025A000571C89E30E94CC1B0C94571C833859F4A8
:1025B0000E94AA1080FF35C083E50E948F1B0E94F5
:1025C000571C83E5EFCF843859F40E94AA1082FF8C
:1025D00028C087E40E948F1B0E94571C87E4E2CF2B
:1025E0009CEF980F913AF0F290E2980F983050F4E7
:1025F000877091E001C0990F8A95EAF7892F0E94B0
:10260000141CD2CF9BE5980F933020F490E080E02B
:102610000C94CC10885A853120F490E080E00C9422
:10262000E2100895882321F00E940E1C0C94571C80
:102630000895882321F00E94141C0C94571C0895BF
:102640008F929F92AF92BF92DF92EF92FF920F9381
:102650001F93CF93DF937C01D62FC72FFC010581F9
:1026600002950F70128111110E942D1C0E94881B6F
:10267000D82E882371F0112321F180E28D0F88304C
:1026800000F182E00E94721B0E94881B91E0D82E0C
:10269000D926EC2FE295EF70F0E0EF5AFC4E0C9447
:1026A000852963136313B313B313F5131114901334
:1026B00090131C149013B414B41427159013901392
:1026C0003015D12CE6CF0C2F0F70C07F11F0029582
:1026D000007F1123A9F0002359F080E28D0F88308C
:1026E00010F0D11109C0802F0E940E1C0E94571CAF
:1026F0008D2F0E94E71114C0802F0E941F1CF6CF5F
:102700008D2F0E94C312002359F080E28D0F883074
:1027100010F0D11124C0802F0E94141C0E94571C5D
:10272000DD2009F4A4C10E94651B80FDA0C1F70152
:1027300012820E945F1B0E94D919C7010E94431593
:102740000E945F1BDF91CF911F910F91FF90EF903F
:10275000DF90BF90AF909F908F900C94FA19802FCC
:102760000E94251CDBCFFC2FFF70BF2EC07FC03224
:1027700019F0B29480EFB822DD2369F0D13029F14D
:10278000112369F1002359F0F701858180FFB0CF53
:102790008F70858304C0112361F0011104C08B2D5B
:1027A0000E941213BDCF8B2D0130D1F70E94411C26
:1027B000B7CF011106C00E94441C8B2D0E94191333
:1027C000AFCF013009F4ACCFF6CF112321F00630A2
:1027D00008F0A6CFE4CF053008F0A2CFEECF00235B
:1027E00061F38D2F0E94C3129BCF8C2F8695869507
:1027F000837069F0813009F093CF8D2F9C2F9370F7
:10280000111102C090E080E00E94E21089CF8D2F6C
:102810009C2F9370111102C090E080E00E94CC10B8
:102820007FCF8D2F112329F00E949C1F0E948820AA
:1028300077CF0E940420FACF8C2F837009F047C015
:1028400011116ECF2D2F229526952770220F220F62
:102850006D2F6F70862E912CB12CA12C022E04C0EE
:10286000880C991CAA1CBB1C0A94D2F760E070E08B
:10287000CB01D4FF0FC06FE070E080E090E004C0B7
:10288000660F771F881F991F2A95D2F7609570955C
:1028900080959095C695C695C370C23051F080F46E
:1028A000682979298A299B29C13071F00E948219EF
:1028B00037CF682979298A299B290E949E1930CF10
:1028C0000E948219C501B4010E94661929CF86951C
:1028D000112311F08C2F8170882309F421CF2D2F23
:1028E000229526952770220F220F6D2F6F70862E4E
:1028F000912CB12CA12C022E04C0880C991CAA1C6E
:10290000BB1C0A94D2F760E070E0CB01D4FF0FC08B
:102910006FE070E080E090E004C0660F771F881FD2
:10292000991F2A95D2F76095709580959095C695D8
:10293000C695C370C23051F080F4682979298A297C
:102940009B29C13071F00E945C1AEACE682979296E
:102950008A299B290E94781AE3CE0E945C1AC5013D
:10296000B4010E94401ADCCEE0E2ED0FE53108F040
:1029700062C0F0E0E254FB4E0C948529D314D314CA
:10298000D314D314D314D314D314D314D314D3140F
:10299000D314D314D314D314D314D314E014EE14D7
:1029A000F514FC140615DF708C2F8F71112321F0A4
:1029B0000E94D9198D2FF4CE0E94FA198D2FFECEC8
:1029C000112341F0053008F0ABCE8C2F8F710E949F
:1029D0001F1AA6CE063008F0A3CEF7CF8C2F8F712A
:1029E000112339F00E94D9199BCE8C2F8F7111239E
:1029F000C9F30E94FA1994CE112329F08C2F8F71FC
:102A00000E94C4198DCE0E94BA198ACE112349F0B2
:102A1000CF718C2F0E94D91963E08C2F0E94691B03
:102A20007FCE81E00E94721B023008F479CE82E0F2
:102A30000E94721B75CE112329F0011159CE8C2FE3
:102A40008F71D0CF0111CDCE8C2F8F71D2CF4C2F63
:102A50004F706D2FC7010E943B060E94E31860CEA5
:102A60004C2F4F706D2FC7010E94EF0759CEDF9199
:102A7000CF911F910F91FF90EF90DF90BF90AF909B
:102A80009F908F9008950F931F93CF93DF93EC0146
:102A9000988189812B813C81232B39F08F3F19F458
:102AA00081E09F3F19F080E001C081E080FD17C008
:102AB000CE010E945406882391F0688179818A8131
:102AC0000E943B1B8C010E94941A0E945B19B80162
:102AD000CE01DF91CF911F910F910C942013DF91C4
:102AE000CF911F910F9108950E942D1C0E943E1CB2
:102AF0000E94001C0E94571C0E9435210E948820C1
:102B000090E080E00E94CC1090E080E00C94E21015
:102B10000E941C1C0C9474150E94311BE92FE29535
:102B2000EF70E250EE30E0F4F0E0E756FA4E0C942D
:102B30008529A715A715B015B015B215B015B01594
:102B4000B015A715A715B715B015B015B715803F67
:102B500019F020F4803E20F481E00895843FE1F3F1
:102B600080E00895803EC0F3813FD1F7F5CF93FB1D
:102B7000882780F90895CF93DF9300D000D01F926B
:102B8000CDB7DEB70F900F900F900F900F90DF91A1
:102B9000CF910895CF93DF9300D000D000D0CDB770
:102BA000DEB726960FB6F894DEBF0FBECDBFDF911D
:102BB000CF9108951F93CF93DF93C0918C0116E0BE
:102BC00080918D018C1304C0DF91CF911F910895E6
:102BD000D0E01C9FF0011D9FF00D1124E257FE4F25
:102BE0004081518162817381848195810E94CA15DF
:102BF0002196C770E5CF4091BE015091BF01609111
:102C0000C0017091C1018091C2019091C3010C94E7
:102C1000CA151F93CF93DF938091C301807FD1F4B6
:102C20008091C0018823B1F080918C01D0918D01F9
:102C3000B091BE01C091BF014091C1015091C2014C
:102C4000A1E0BF3F09F0A0E0BA016095709516E0E1
:102C5000D81304C0DF91CF911F91089521E0411551
:102C6000510521F02A2FCF3F09F020E090E020FD10
:102C700038C0189FF001199FF00D1124E257FE4F44
:102C800021812C132EC020812B132BC022812111D6
:102C900028C0238134812417350700F1241B350B0C
:102CA000283C3105F0F42091C3012F70206120935E
:102CB000C30126E0289FF001299FF00D1124ED5655
:102CC000FE4F80818F70806180838EEB91E00E9447
:102CD0004315DF91CF911F910C94DA15260F371F02
:102CE000DFCF01968770B4CFAF92BF92CF92DF92C1
:102CF000EF92FF920F931F93CF93DF93CDB7DEB781
:102D000061970FB6F894DEBF0FBECDBF8C0185E092
:102D1000F801DE011D9601900D928A95E1F7D80128
:102D20004C9111965C9111971296EC903091BE01E6
:102D30006091BF018091C1019091C20121E0009793
:102D400031F06F3F19F421E03F3F09F020E0B22F4E
:102D5000B170BB2E20FD80C1F801C380D480A0904B
:102D6000C001AA2009F427C1C816D906D0F1D6019E
:102D7000A81BB90BCD01FF24F394883C910508F002
:102D8000F12C8091C301982F907FFF2009F4CAC0D5
:102D9000911187C0FE2C651329C0341327C0E110A0
:102DA00025C08F7080618093C3010E94FB158EEB5C
:102DB00091E00E9443158091C301F80185838F2D16
:102DC00061960FB6F894DEBF0FBECDBFDF91CF91F5
:102DD0001F910F91FF90EF90DF90CF90BF90AF9039
:102DE0000895809590958C0D9D1DC5CF81E0CD28CF
:102DF00031F05F3F19F481E04F3F09F080E080FD42
:102E000024C081E08E25F82FF170DF2E80FF3FC0B7
:102E100080918C0120918D0136E0821318C04D877E
:102E20005E878D859E850E94311B292F22952F70EC
:102E3000223008F1243030F59F7009F1D801159641
:102E40009C91907FE1F4FB2CBACF80E0DCCF90E046
:102E5000389FF001399FF00D1124E257FE4F618138
:102E6000561306C06081461303C062816E110FC005
:102E700001968770D2CF9F7011F0882321F3805E76
:102E8000883008F3C8010E944315BD2CDCCFEE202A
:102E900009F495CF8091C30181608093C301F12C27
:102EA0008ECF651312C0341310C0E1100EC0F801AC
:102EB0008583C8010E94431586E0F801AEEBB1E0BE
:102EC00001900D928A95E1F741C04D875E878D850F
:102ED0009E850E948C15882309F4C8C0EE2009F451
:102EE000C5C08091C301803270F02091BE01309145
:102EF000BF0138872F831986DB86CA868C87CE016F
:102F000007960E94431586E0F801AEEBB1E0019010
:102F10000D928A95E1F70E9409160E94FB15FF2485
:102F2000F3944DCF911115C07C2DD98AC88A6E2D8E
:102F300089890E94BB158EEB91E00E94431586E0C3
:102F4000EEEBF1E0DF011D928A95E9F70E94FB1597
:102F500036CF651312C0341310C0E1100EC0F80153
:102F60008583C8010E944315EEEBF1E086E0DF01A6
:102F70001D928A95E9F7FA2C22CF4D875E878D85C1
:102F80009E850E948C15882309F470C0EE2009F4F8
:102F90006DC08091C301803208F4B5CF2091BE018D
:102FA0003091BF013A8329831B82DD82CC828E83DC
:102FB000CE010196A6CFC816D90638F1F601E81B56
:102FC000F90BCF01F12C883C910508F03DC0FE2C97
:102FD000EE2009F44BC0651326C0341324C0809141
:102FE000C30180FD17C0982F907FA1F0D8011596DE
:102FF0008C931597903F09F45CCF982F907F905F4A
:103000008F70892B15968C9354CF809590958C0D4D
:103010009D1DD8CF86E0F801AEEBB1E001900D9296
:103020008A95E1F7CCCE4D875E878D859E850E947F
:103030008C15811168CF8091C30181608093C30199
:10304000C8010E944315BBCE7C2DD98AC88A6E2D3B
:1030500089890E94BB1573CFEE2041F04D875E87B2
:103060008D859E850E948C1581114DCFC8010E94CF
:10307000431555CF1F93CF93DF93CDB7DEB72C9772
:103080000FB6F894DEBF0FBECDBF4F835887698758
:103090007A878B879C87CE0107960E9474168823B7
:1030A00009F442C09F8188852A853B85232B39F00E
:1030B0008F3F19F481E09F3F19F080E001C081E06B
:1030C00080FD08C04F81588569857A858B859C85F0
:1030D0000E94CA1516E080918C0190918D0189178C
:1030E00009F467C0819FC001112482579E4F0E943E
:1030F0007416882309F45DC0E0918C011E9FF001D5
:103100001124E257FE4F4081518162817381848195
:1031100095810E94CA1580918C0190E0019687707C
:10312000992780938C01D7CF86E0FE013796DE0188
:10313000119601900D928A95E1F79F8188852A85E5
:103140003B85232B39F08F3F19F481E09F3F19F025
:1031500080E001C081E080FDBDCF20918D0130E095
:10316000C90101968770992740918C01481719066B
:1031700099F096E0929FD001939FB00D1124A25731
:10318000BE4FFE01319601900D929A95E1F7809322
:103190008D010E94DA159ECF0E94881510928D0134
:1031A00010928C0186E0EEEBF1E0DF011D928A9532
:1031B000E9F72C960FB6F894DEBF0FBECDBFDF91B6
:1031C000CF911F910895EF92FF920F931F93CF938A
:1031D000DF938C01892B81F0F12CEE24E394E8013C
:1031E0002196F8018491843770F4843008F05FC030
:1031F0008130B1F08230A1F1DF91CF911F910F9119
:10320000FF90EF900895853709F44CC008F43DC055
:103210009CE7980F903780F78F770E94C31249C0C0
:103220000E5F1F4FFE01849190E2980F983060F47A
:103230008770FE2D01C0FF0F8A95EAF78F2F0E943D
:10324000301C0E94571C02C00E94E7118F2D815034
:1032500030F2EFE9FFE03197F1F700C00000F7CF5F
:103260000E5F1F4FFE01849190E2980F983050F44A
:103270008770FE2D01C0FF0F8A95EAF78F2F0E94FD
:10328000361CDFCF0E94C312E1CF0E5F1F4FFE013D
:10329000C491C150D8F28FE99FE00197F1F700C0C7
:1032A0000000F7CF0E5F1F4FFE01F490CFCF0E94BA
:1032B000E7118E01CBCF08956093F0017093F10177
:1032C0008093F2019093F3010C9474150F931F9364
:1032D0000091F0011091F1012091F2013091F30180
:1032E000DC01CB01802B912BA22BB32B8093F0011F
:1032F0009093F101A093F201B093F3011F910F910C
:103300000C9474150F931F930091F0011091F1012B
:103310002091F2013091F301DC01CB018023912354
:10332000A223B3238093F0019093F101A093F201C3
:10333000B093F3011F910F910C9474150F931F9389
:103340000091F0011091F1012091F2013091F3010F
:10335000DC01CB0180279127A227B3278093F001BE
:103360009093F101A093F201B093F3011F910F919B
:103370000C9474151092EC011092ED011092EE0174
:103380001092EF010C94741541E050E060E070E0A1
:1033900004C0440F551F661F771F8A95D2F74093CC
:1033A000EC015093ED016093EE017093EF010C94EA
:1033B000741541E050E060E070E004C0440F551F18
:1033C000661F771F8A95D2F78091EC019091ED01ED
:1033D000A091EE01B091EF01842B952BA62BB72B7A
:1033E0008093EC019093ED01A093EE01B093EF0177
:1033F0000C94741541E050E060E070E004C0440FAC
:10340000551F661F771F8A95D2F740955095609596
:1034100070958091EC019091ED01A091EE01B09139
:10342000EF0184239523A623B7238093EC01909387
:10343000ED01A093EE01B093EF010C94741541E0FF
:1034400050E060E070E004C0440F551F661F771F16
:103450008A95D2F78091EC019091ED01A091EE0157
:10346000B091EF0184279527A627B7278093EC0119
:103470009093ED01A093EE01B093EF010C947415BD
:103480000F931F930091EC011091ED012091EE013B
:103490003091EF01DC01CB01802B912BA22BB32BC0
:1034A0008093EC019093ED01A093EE01B093EF01B6
:1034B0001F910F910C9474150F931F930091EC01C1
:1034C0001091ED012091EE013091EF01DC01CB0173
:1034D00080239123A223B3238093EC019093ED01E9
:1034E000A093EE01B093EF011F910F910C9474150E
:1034F0000F931F930091EC011091ED012091EE01CB
:103500003091EF01DC01CB0180279127A227B3275F
:103510008093EC019093ED01A093EE01B093EF0145
:103520001F910F910C94741508952CE0929F800DBB
:103530001124982F977071E001C0770F9A95EAF7E0
:1035400086958695869525E0829FC001112450E0DE
:1035500040E0A62FB0E0FC01E40FF51FEC53FE4F56
:1035600060819D01042E02C0369527950A94E2F7EA
:103570002170219526272723262720834F5F5F4F21
:103580004530510541F708952CE0929F800D11249C
:10359000982F977086958695869525E0829FA00145
:1035A000112470E060E080E0FA01E60FF71FEC53B1
:1035B000FE4F208130E0092E02C0369527950A94EF
:1035C000E2F721703327062E01C0220F0A94EAF792
:1035D000822B6F5F7F4F6530710531F70895BF9281
:1035E000CF92DF92EF92FF920F931F93CF93DF93CF
:1035F0008C01C090EC01D090ED01E090EE01F090D4
:10360000EF018091F0019091F101A091F201B09150
:10361000F301C82AD92AEA2AFB2ACFE1D0E0BC2E3E
:10362000D701C6010C2E04C0B695A795979587952E
:103630000A94D2F780FD0EC0219788F7B12C8B2D0C
:10364000DF91CF911F910F91FF90EF90DF90CF907E
:10365000BF900895B8018C2F0E940C08019761F368
:10366000EECFCF93DF93EC010E94EF1ABE01DF9102
:10367000CF910C940C081F93CF93DF93EB019091A3
:103680008B01992331F0CB01DF91CF911F910C94E5
:10369000311B882379F0CB010E94EF1A182F682F75
:1036A000CE010E94951ABE01812FDF91CF911F910B
:1036B0000C940C08CB010E94C41A182FF4CF8091EF
:1036C000F40185958595859508958091F40187701D
:1036D000089598E0899F90011124622B6093F40172
:1036E0000C94D9199091F401809589238093F40169
:1036F000282F277061F4282F082E000C330B921707
:10370000130629F08595859585950C94FA190895E9
:103710009091F401977081E009F480E00895909110
:1037200013019923E1F09091820297FF18C0E82FCE
:10373000E695E695E695EF3139F12091010130915A
:103740000201E20FF32FF11D877021E030E001C08C
:10375000220F8A95EAF78181822B81830895209137
:10376000010130910201F90132969FEF40E0519141
:10377000851751F09F3F19F4511101C0942F4F5FED
:103780004E31A9F79F3F09F40895290F311D97FD88
:103790003A95F90182830895909113019923F1F0EC
:1037A0009091820297FF1AC0E82FE695E695E6957C
:1037B000EF3129F12091010130910201E20FF32F45
:1037C000F11D282F277081E090E001C0880F2A9515
:1037D000EAF78095918189238183089520910101E1
:1037E00030910201F9013296205E3F4F9191891389
:1037F00003C0DF0111971C92E217F307B9F7089590
:1038000081E090E0E0910101F0910201E80FF91FE1
:103810001082019680329105A9F7089590911802BF
:10382000892B809318020895982F90958091180203
:103830008923809318020895109218020895909198
:103840001702892B809317020895982F90958091E5
:103850001702892380931702089510921702089582
:1038600090911602892B809316020895982F9095B7
:1038700080911602892380931602089510921602F1
:1038800008958093F50108951092F501089520910F
:10389000010130910201F9013196205E3F4F80E035
:1038A000919191118F5FE217F307D1F70895E0919D
:1038B0000101F0910201809118028083E0910101E1
:1038C000F0910201808190911702892B8083E09111
:1038D0000101F0910201808190911602892B808371
:1038E0009091F501992361F0E0910101F0910201BD
:1038F0008081892B80830E94471C81111092F501E1
:1039000080910101909102010C94B6106DEE7EEF52
:1039100090E080E00E94BD2960E082E090E00E949B
:103920009F2960E083E090E00E949F2960E084E0AE
:1039300090E00E949F2960E085E090E00E949F292E
:1039400040E050E0BA0188E090E00C94B12990E0AA
:1039500080E00E94992921E08D3E9E4F09F020E0F1
:10396000822F089582E090E00C948B29682F82E0EA
:1039700090E00C949F2983E090E00C948B29682FB1
:1039800083E090E00C949F2984E090E00C948B29D4
:10399000682F84E090E00C949F2980918802843005
:1039A00039F110921A0288E190E020E40FB6F89401
:1039B000A895809360000FBE2093600080E00E9475
:1039C000ED0783B7817F846083BF83B7816083BF46
:1039D0007894889583B78E7F83BF0FB6F894A895A7
:1039E00080916000886180936000109260000FBE3B
:1039F000089508950895CF930E94F91C0E94BE0A6D
:103A00000E94FA1CC0E08C2F0E94800B892B31F49D
:103A1000CF5FC530C1F780E0CF91089581E0FCCF42
:103A20000E9488150E94AA100C94ED071F920F9215
:103A30000FB60F9211248F939F93AF93BF938091F2
:103A40001A02811113C080917E0290917F02A09191
:103A50008002B09181024196A11DB11D80937E022A
:103A600090937F02A0938002B0938102BF91AF91A7
:103A70009F918F910F900FBE0F901F90189582E02D
:103A800084BD93E095BD9AEF97BD80936E00089535
:103A90002FB7F89480917E0290917F02A0918002CE
:103AA000B09181022FBF0895CF92DF92EF92FF92E3
:103AB0000F931F932FB7F89440917E0250917F028D
:103AC00060918002709181022FBF6A017B01EE2418
:103AD000FF248C0130E020E0C016D106E206F30698
:103AE00050F0481B590BCA011F910F91FF90EF90A6
:103AF000DF90CF90089541505109F3CF1F920F925C
:103B00000FB60F9211248F939F93AF93BF93809121
:103B10007E0290917F02A0918002B0918102019675
:103B2000A11DB11D80937E0290937F02A09380021D
:103B3000B0938102BF91AF919F918F910F900FBE73
:103B40000F901F9018950E943125F8942FEF87EA67
:103B500091E6215080409040E1F700C0000087E0EE
:103B600090EBDC018093910290939202A0939302D8
:103B7000B093940288E19CE00FB6F894A8958093E6
:103B800060000FBE90936000FFCFAF92BF92CF92C4
:103B9000DF92EF92FF920F931F93CF93C0E0CC245C
:103BA000C394D12CE82EF12C8C2F0E94800B5C0149
:103BB00010E000E0C601002E02C0880F991F0A9491
:103BC000E2F78A219B21892B99F40F5F1F4F0C305C
:103BD000110581F7CF5FC53039F780E0CF911F9194
:103BE0000F91FF90EF90DF90CF90BF90AF9008952E
:103BF000602F7C2F80E00E94F007E816F90629F775
:103C000081E0ECCFCF93C82F8CE20E94C51D8823A2
:103C100021F08C2FCF910C94C51D80E0CF91089599
:103C2000CF930E94A71C811102C00E94861CC5E68A
:103C300008C00E94BE0A8FE39CE90197F1F700C01B
:103C40000000C150B1F789E20E94021E8111EFC04D
:103C50008AE20E94021E81110E94861C85E00E9459
:103C6000021E81110E94A31D0E94B21C80931902A2
:103C700087E00E94021E882371F08BE10E94021EE1
:103C8000882309F4B1C090911902892F8D7F91FF8B
:103C9000826080931902809119020E94B61C0E94D2
:103CA000C41C90E0909383028093820280EE0E9475
:103CB000021E882341F090918202892F8E7F90FF0F
:103CC00081608093820289E30E94021E882341F072
:103CD00090918202892F8D7F91FF82608093820272
:103CE00082EE0E94021E882341F090918202892F69
:103CF0008B7F92FF84608093820286EE0E94021E78
:103D0000882341F090918202892F877F93FF8860FA
:103D10008093820283EE0E94021E882341F09091DC
:103D20008202892F8F7E94FF80618093820285E3D7
:103D30000E94021E882341F090918202892F8F7D7C
:103D400095FF80628093820281E30E94021E882395
:103D500041F090918202892F8F7B96FF806480933F
:103D6000820281E10E94021E882341F0909182022A
:103D7000892F97FB87F98058809382028091820275
:103D80000E94C81C87E20E94021EC82F8EE10E947A
:103D9000021E8111C2608FE10E94021E8111C46067
:103DA00080E20E94021E8111C86081E20E94021E10
:103DB0008111C06182E20E94021E8111C06283E211
:103DC0000E94021E8111C06484E20E94021E8823A8
:103DD00041F1C0688C2F0E94BF1C6C2F70E090E0F6
:103DE00080E0CF910C945C198EE00E94021E882323
:103DF00039F090911902892F8B7F92FF846049CF0F
:103E000080E10E94021E90911902882329F0892FD7
:103E1000877F93FF88603DCF892F8E7F90FF8160E1
:103E200038CFC111D7CF0E94BB1C682FD7CFCF91FD
:103E3000089580911D0280FF12C06091060185E007
:103E4000689FB001112475956795759567956038E1
:103E50007105A8F561157105A1F1862F089581FFFF
:103E600009C06091060185E0689FB0011124759535
:103E70006795EDCF82FF07C06091060185E0689FDE
:103E8000B0011124E4CF20911E022223A9F09091C9
:103E900005016091060185E0689FB0011124291792
:103EA000B0F6269FA001279F500D1124692F70E0C6
:103EB000CA010E947129CBCF65E070E0CECF8FE7B9
:103EC000089581E0089580911D0280FF0CC06091EB
:103ED000040170E075956795759567956115710595
:103EE00049F1862F089581FF06C06091040170E0BA
:103EF00075956795F3CF6091040182FD0BC0909199
:103F00001E029923A1F0609103018091040196178C
:103F100038F0682F70E06038710500F38FE708957E
:103F2000899FC001112470E00E947129F4CF61E0E3
:103F300070E0D7CF81E00895803F31F40E94191FCF
:103F40008195809321020895813F19F40E94191FE1
:103F5000F8CF823F31F40E94191F8195809320028F
:103F60000895833F19F40E94191FF8CF893F29F45F
:103F70000E94631F8093220208958A3F21F40E94C9
:103F8000631F8195F7CF8B3F31F40E94631F8195AA
:103F90008093230208958C3F19F40E94631FF8CF89
:103FA000843F31F480911F02816080931F02089545
:103FB000853F21F480911F028260F7CF863F21F474
:103FC00080911F028460F1CF873F21F480911F020E
:103FD0008860EBCF883F21F480911F028061E5CF9C
:103FE0008D3F31F480911D02816080931D02089500
:103FF0008E3F21F480911D028260F7CF8F3FB9F789
:1040000080911D028460F1CF803FC1F48091210234
:1040100087FD109221028091200281110EC08091B3
:10402000210281110AC080912202811106C0809173
:104030002302811102C010921E020895813F29F4CB
:104040008091210218162CF3E6CF90912002823F36
:1040500029F497FFE0CF10922002DDCF833F19F4BF
:104060001916CCF3D8CF893F39F480912202181663
:1040700094F610922202CFCF8A3F29F48091220237
:1040800087FFC9CFF6CF8B3F39F48091230287FF9A
:10409000C2CF10922302BFCF8C3F29F4809123021C
:1040A0001816BCF3B8CF843F31F480911F028E7F85
:1040B00080931F02B0CF853F21F480911F028D7F36
:1040C000F7CF863F21F480911F028B7FF1CF873F8E
:1040D00021F480911F02877FEBCF883F21F48091EC
:1040E0001F028F7EE5CF8D3F31F480911D028E7FC0
:1040F00080931D0290CF8E3F21F480911D028D7F11
:10410000F7CF8F3F09F087CF80911D028B7FF0CFD3
:104110008FE192E00E94C1100E94481D90931C0202
:1041200080931B0208951F93CF93DF9380911B020E
:1041300090911C020E94541DAC0190911E0220918E
:10414000070130E0911106C0209108018AE0289F04
:10415000900111244217530780F080912002C091F2
:10416000210210912202D091230281110AC0C111B3
:1041700078C0111176C0D11174C0DF91CF911F9119
:1041800008959F3F19F09F5F90931E02181624F424
:104190000E94191F809320028091200287FF05C092
:1041A0000E94191F8195809320021C1624F40E94FE
:1041B000191F809321028091210287FF05C00E9470
:1041C000191F81958093210260912002662331F1AD
:1041D000C0912102CC2311F1062E000C770B880B25
:1041E000990B0E94642823E333E343E35FE30E94D7
:1041F000C8280E942C28609320026C2FCC0F770BCC
:10420000880B990B0E94642823E333E343E35FE3C5
:104210000E94C8280E942C2860932102111624F4C1
:104220000E94631F809322028091220287FF05C0B3
:104230000E94631F8195809322021D1624F40E9420
:10424000631F809323028091230287FF05C00E9491
:10425000631F819580932302DF91CF911F910C946E
:1042600088209F3F09F08FCFA0CF85E0EFE1F2E0FB
:10427000DF011D928A95E9F710921E0210921D022D
:104280000895809144020895CF93DF9300D01F9248
:10429000CDB7DEB79C0180918802843019F593E098
:1042A00099833B832A839093E9008FEF9091E800F4
:1042B000815095FD06C095ED9A95F1F700008111AA
:1042C000F5CF8091E80085FF0DC050E040E063E04D
:1042D00070E0CE0101960E94A1238091E8008E77C4
:1042E0008093E8000F900F900F90DF91CF91089589
:1042F000CF93DF9300D01F92CDB7DEB72091880215
:10430000243031F522E02983805891099B838A83E8
:1043100083E08093E9008FEF9091E800815095FD54
:1043200006C095ED9A95F1F700008111F5CF8091C7
:10433000E80085FF0DC050E040E063E070E0CE0192
:1043400001960E94A1238091E8008E778093E80077
:104350000F900F900F90DF91CF9108959C01809165
:1043600088028430F9F482E08093E9009FEF809125
:10437000E800915085FD06C085ED8A95F1F70000B3
:104380009111F5CF8091E80085FF0CC050E040E02E
:1043900065E070E0C9010E94A1238091E8008E775A
:1043A0008093E8000895CF93DF93EC018091880219
:1043B0008430F1F4909113019923E9F090918202F5
:1043C00097FF19C08093E9008FEF9091E80081502A
:1043D00095FD06C095E19A95F1F700008111F5CFA2
:1043E0008091E80050E040E060E270E085FD1AC096
:1043F000DF91CF91089581E08093E9008FEF909154
:10440000E800815095FD06C095ED9A95F1F7000002
:104410008111F5CF8091E80085FFEACF50E040E0C0
:1044200068E070E0CE010E94A1238091E8008E77C1
:104430008093E80080E2FE01A4E2B2E001900D92D8
:104440008A95E1F7D5CF80918702811109C00E943A
:1044500031250E948E258091E20084608093E200E5
:104460000895109287020895089508950C94101DE0
:1044700042E061EC81E00E94AF2442E061EC82E026
:104480000E94AF2442E061EC83E00E94AF2442E24C
:1044900061EC84E00C94AF2480918A02833009F4AB
:1044A00055C030F4813071F1823009F491C0089523
:1044B0008A3009F47DC08B3009F463C0893009F07B
:1044C00044C080918902813209F03FC080918D0201
:1044D00090918E02009711F00397B9F58091E80052
:1044E000877F8093E8008091E80082FF2AC0809156
:1044F000F100809344028091E8008B778093E8007C
:104500000C94E32480918902813AF9F48091E800C7
:10451000877F8093E80080918D0290918E02892B95
:1045200061F460E284E292E070E00E94F023809106
:10453000E8008B778093E800089560E090E080E0E9
:10454000F3CF809188028111CECF089580918902A6
:10455000813AD9F780918D0290918E02892BA9F72B
:104560008091E800877F8093E8008091E80080FFD9
:10457000FCCF809113018093F1008091E8008E7749
:10458000BDCF80918902813201F780918D02909197
:104590008E02892BD1F68091E800877F8093E80016
:1045A0000E94E32480918B02809313010C94881560
:1045B00080918902813249F68091E800877F80935B
:1045C000E8000E94E32480918C02809345020895C4
:1045D00080918902813A09F0B8CF8091E800877F05
:1045E0008093E8008091E80080FFFCCF8091450235
:1045F000C2CF84B7877F84BF0FB6F894A895809107
:104600006000886180936000109260000FBE80E8B7
:1046100080936100109261000E94F9100E94312580
:104620000E948E258091E20084608093E20078945D
:104630000E9410280E94FB1089E091E00E94A510C2
:1046400080918802853029F00E9403110E94721027
:10465000F7CF0E94CD1C80918602882389F30E94A7
:10466000FB1C882369F30E948B23EACF292F332771
:104670002330310579F158F421303105F1F0223041
:10468000310519F190E080E030E020E01AC02132DD
:10469000310599F122323105A9F7643098F770E0BD
:1046A000FB01EE0FFF1FE75DFE4F208131816B5D47
:1046B0007E4FFB01808190E004C082E190E026ED16
:1046C0003AE0FA013183208308958DE690E029E6EF
:1046D0003AE0F7CF99278130910561F028F00297F1
:1046E00089F6E9E3FAE002C0E5E6FAE0849190E0B9
:1046F0009F01E7CFEDE4FAE0F9CF643008F0C2CFD4
:10470000E62FF0E0EE0FFF1FEF5CFE4F20813181BE
:1047100089E090E0D6CF80E189BD82E189BD09B40E
:1047200000FEFDCF8091D8008F7D8093D8008091CE
:10473000E00082608093E0008091E00081FDFCCF8A
:104740000895AF92BF92CF92DF92FF920F931F9383
:10475000CF93DF936C01EB018A010E940225F82EB2
:10476000811123C00115110539F0F8018081918173
:10477000C81BD90BC80ED91EB12CA12C2097A9F0AB
:104780008091E80085FD22C08091E8008E778093BB
:10479000E80001151105A1F0F80180819181A80EB2
:1047A000B91EB182A08285E0F82E8F2DDF91CF91C6
:1047B0001F910F91FF90DF90CF90BF90AF90089521
:1047C0000E9402258823D1F2F82EEFCFF6018191C5
:1047D0006F018093F1002197FFEFAF1ABF0ACECF90
:1047E000FC0180918F029091900286179707A0F0AC
:1047F0006115710529F49091E8009E779093E80087
:1048000090E06115710551F4911108C08091E800A4
:1048100082FF35C080E00895BC01F2CF809188020C
:104820008823C9F18530C9F18091E80083FD31C04A
:104830008091E80082FDEACF8091E80080FFE1CF1F
:104840002091F3008091F200322F282F611571051D
:1048500019F02830310558F091E02830310509F081
:1048600090E02091E8002E772093E800CACF819154
:104870008093F100615071092F5F3F4FE7CF809126
:104880008802882341F0853041F08091E80083FF61
:10489000BDCF81E0089582E0089583E00895FC0192
:1048A00080918F029091900286179707A0F0611572
:1048B000710529F48091E8008E778093E80090E0FC
:1048C0006115710551F4911108C08091E80082FFD3
:1048D00036C080E00895BC01F2CF80918802882321
:1048E000D1F18530D1F18091E80083FD32C0809113
:1048F000E80082FDEACF8091E80080FFE1CF2091BF
:10490000F3008091F200322F282F6115710519F004
:104910002830310558F091E02830310509F090E059
:104920008091E8008E778093E800CACF84918093CD
:10493000F1003196615071092F5F3F4FE6CF8091B2
:104940008802882341F0853041F08091E80083FFA0
:10495000BCCF81E0089582E0089583E00895982F08
:10496000973028F08F708093E90081E0089590934C
:10497000E900242F762F50E0981731F07091EC0069
:104980002091ED005091F00021FD02C09F5FE8CF23
:104990003091EB003E7F3093EB003091ED003D7F96
:1049A0003093ED003091EB0031603093EB00709369
:1049B000EC002093ED005093F0002091EE0027FDD5
:1049C000E5CF80E008958091890287FF13C0809130
:1049D000E80082FF06C08091E8008B778093E800B2
:1049E00004C0809188028111F2CF089580918802DD
:1049F0008823D9F38091E80080FFF8CF8091E80008
:104A00008E77ECCF2091E4003091E50085E690911F
:104A1000EC0090FF06C09091E80090FF06C080E097
:104A200008959091E80092FDFACF90918802992321
:104A300091F0953091F09091EB0095FD10C0409170
:104A4000E4005091E5002417350709F381509A01DD
:104A5000F1F684E0089582E0089583E0089581E00E
:104A600008950E949F250E94A725E0EEF0E0808136
:104A700081608083E8EDF0E080818F77808319BCCE
:104A8000A7EDB0E08C918E7F8C9380818F7E8083A8
:104A90001092870208950F931F93CF93DF930E9484
:104AA0009F250E94A725C8EDD0E088818F77888355
:104AB00088818068888388818F7D888319BC109263
:104AC000880210928402109286021092850200EEF3
:104AD00010E0F80180818B7F8083888181608883EA
:104AE00042E060E080E00E94AF24E1EEF0E08081EF
:104AF0008E7F8083E2EEF0E0808181608083808120
:104B000088608083F80180818E7F808388818061C6
:104B10008883DF91CF911F910F910895E8EDF0E028
:104B200080818F7E8083E7EDF0E0808181608083EB
:104B300084E082BF81E0809387020C944B25E8EDEE
:104B4000F0E080818E7F80831092E20008951092C1
:104B5000DA001092E10008951F920F920FB60F92A3
:104B600011242F933F934F935F936F937F938F9372
:104B70009F93AF93BF93EF93FF938091E10082FFE8
:104B80000BC08091E20082FF07C08091E1008B7F23
:104B90008093E1000E940F288091DA0080FF19C005
:104BA0008091D80080FF15C08091DA008E7F8093BD
:104BB000DA008091D90080FF94C080E189BD82E154
:104BC00089BD09B400FEFDCF81E0809388020E9478
:104BD00023228091E10080FF19C08091E20080FFD4
:104BE00015C08091E2008E7F8093E2008091E20008
:104BF00080618093E2008091D80080628093D80029
:104C000019BC85E0809388020E9435228091E100E2
:104C100084FF29C08091E20084FF25C080E189BD26
:104C200082E189BD09B400FEFDCF8091D8008F7D5F
:104C30008093D8008091E1008F7E8093E100809185
:104C4000E2008F7E8093E2008091E2008160809399
:104C5000E20080918402882309F449C084E08093B3
:104C600088020E9436228091E10083FF29C0809152
:104C7000E20083FF25C08091E100877F8093E100FF
:104C800082E080938802109284028091E1008E7FFE
:104C90008093E1008091E2008E7F8093E20080911A
:104CA000E20080618093E20042E060E080E00E94E8
:104CB000AF248091F00088608093F0000E9434223D
:104CC000FF91EF91BF91AF919F918F917F916F91E4
:104CD0005F914F913F912F910F900FBE0F901F90BA
:104CE000189519BC109288020E94312272CF8091CF
:104CF000E30087FD02C081E0B2CF83E0B0CF1F9216
:104D00000F920FB60F9211242F933F934F935F93FF
:104D10006F937F938F939F93AF93BF93CF93EF93B3
:104D2000FF93C091E900CF708091EC001092E900F0
:104D30008091F000877F8093F00078940E94BB26DA
:104D40001092E9008091F00088608093F000C09399
:104D5000E900FF91EF91CF91BF91AF919F918F911A
:104D60007F916F915F914F913F912F910F900FBE67
:104D70000F901F9018951F93CF93DF93CDB7DEB799
:104D8000AA970FB6F894DEBF0FBECDBFE9E8F2E0F8
:104D90008091F100819322E0E139F207C9F70E9486
:104DA0004C228091E80083FF42C08091890290915B
:104DB0008A029A3008F03BC0E92FF0E0EE51F94D3D
:104DC0000C948529EC2610271727102717276B2707
:104DD0008D271727E227EF27803879F0823839F5B9
:104DE00080918D028F708093E9008091EB0085FBAC
:104DF000882780F91092E90006C080918502909181
:104E00008602911182609091E800977F9093E8006C
:104E10008093F1001092F1008091E8008E772DC010
:104E2000282F2D7F21F48823D1F0823059F18091F1
:104E3000E80083FF0AC08091E800877F8093E80044
:104E40008091EB0080628093EB00AA960FB6F894F5
:104E5000DEBF0FBECDBFDF91CF911F91089580912E
:104E60008B02813021F7933009F080E08093860235
:104E70001092E9008091E800877F8093E8000E940B
:104E8000E324D5CF80918B028111F2CF80918D02E6
:104E90008F7069F28093E9002091EB0020FFE8CF4A
:104EA000933031F48091EB0080628093EB00E0CF8F
:104EB0009091EB0090619093EB0021E030E001C015
:104EC000220F8A95EAF72093EA001092EA00809177
:104ED000EB008860EACF8111AACF10918B021F7777
:104EE0008091E3008078812B8093E3008091E8003B
:104EF000877F8093E8000E94E3248091E80080FF90
:104F0000FCCF8091E30080688093E30083E011117F
:104F100001C082E0809388028ACF8058823008F0F6
:104F200086CF80918B0290918C028C3D23E092077A
:104F3000A1F583E08A838AE289834FB7F894DE0182
:104F4000139620E03EE051E2E32FF0E0509357004B
:104F5000E49120FF03C0E295EF703F5FEF708E2F6A
:104F600090E0EA30C0F0C7968D939D932F5F243177
:104F700059F74FBF8091E800877F8093E8006AE28D
:104F800070E0CE0101960E94F0238091E8008B77BB
:104F90008093E8004CCFC096E7CFAE014F5F5F4FE4
:104FA00060918D020E943623BC01892B09F43FCF0A
:104FB0009091E800977F9093E80089819A810E9400
:104FC0004F24E3CF803809F032CF8091E800877F0B
:104FD0008093E800809184028093F1001DCF8111BD
:104FE00026CF90918B02923008F021CF8091E8007B
:104FF000877F8093E800909384020E94E32480914D
:105000008402882331F084E0809388020E94382251
:105010000ECF8091E30087FDF6CF81E0F5CF0895B4
:10502000CF9380918802882399F0C091E900CF70D6
:105030008091EC0080FD0EC080E0C82B1092E9004A
:105040008091E80083FD0E94BB26CF70C093E900E9
:10505000CF91089580E8F1CF0E9433286894B11170
:105060000C94C22808950E94A72888F09F5798F0B2
:10507000B92F9927B751B0F0E1F0660F771F881F5D
:10508000991F1AF0BA95C9F714C0B13091F00E9477
:10509000C128B1E008950C94C128672F782F882784
:1050A000B85F39F0B93FCCF3869577956795B3959E
:1050B000D9F73EF490958095709561957F4F8F4F0D
:1050C0009F4F0895E89409C097FB3EF49095809512
:1050D000709561957F4F8F4F9F4F9923A9F0F92FBE
:1050E00096E9BB279395F695879577956795B7953C
:1050F000F111F8CFFAF4BB0F11F460FF1BC06F5F22
:105100007F4F8F4F9F4F16C0882311F096E911C033
:10511000772321F09EE8872F762F05C0662371F054
:1051200096E8862F70E060E02AF09A95660F771F68
:10513000881FDAF7880F9695879597F9089557FD98
:105140009058440F551F59F05F3F71F04795880FF5
:1051500097FB991F61F09F3F79F08795089512168C
:1051600013061406551FF2CF4695F1DF08C0161638
:1051700017061806991FF1CF8695710561050894E9
:105180000895E894BB2766277727CB0197F9089500
:105190000E94DB280C944C290E943E2938F00E9482
:1051A000452920F0952311F00C9435290C943B29C6
:1051B00011240C94C2280E949F2870F3959FC1F37C
:1051C000950F50E0551F629FF001729FBB27F00DB5
:1051D000B11D639FAA27F00DB11DAA1F649F66270A
:1051E000B00DA11D661F829F2227B00DA11D621F59
:1051F000739FB00DA11D621F839FA00D611D221F13
:10520000749F3327A00D611D231F849F600D211DF6
:10521000822F762F6A2F11249F5750409AF0F1F079
:1052200088234AF0EE0FFF1FBB1F661F771F881FE2
:1052300091505040A9F79E3F510580F00C943529BC
:105240000C94C2285F3FE4F3983ED4F3869577959B
:105250006795B795F795E7959F5FC1F7FE2B880F88
:10526000911D9695879597F9089597F99F6780E81E
:1052700070E060E008959FEF80EC089500240A94A8
:105280001616170618060906089500240A94121621
:105290001306140605060895092E0394000C11F454
:1052A000882352F0BB0F40F4BF2B11F460FF04C001
:1052B0006F5F7F4F8F4F9F4F0895AA1BBB1B51E11C
:1052C00007C0AA1FBB1FA617B70710F0A61BB70B76
:1052D000881F991F5A95A9F780959095BC01CD011B
:1052E000089597FB072E16F4009407D077FD09D098
:1052F0000E945D2907FC05D03EF4909581959F4F53
:105300000895709561957F4F0895EE0FFF1F0590EA
:10531000F491E02D0994F999FECF92BD81BDF89AE0
:10532000992780B50895A6E1B0E044E050E00C94E0
:10533000C529A8E1B0E042E050E00C94C529262F31
:10534000F999FECF92BD81BDF89A019700B402167B
:1053500039F01FBA20BD0FB6F894FA9AF99A0FBE29
:1053600008950396272F0E94A0290E949F29252F88
:105370000E94A029242F0C94A0290196272F0E9477
:10538000A0290C949F29DC01CB01FC01F999FECFE7
:1053900006C0F2BDE1BDF89A319600B40D924150BD
:0A53A0005040B8F70895F894FFCFCD
:1053AA00FFF6012808140A321E4121D321AE2178C2
:1053BA0021442101376061626364656667909130B8
:1053CA00F0F1F4F5F6404D3639A40B570B210BE8F2
:0A53DA000A7B0A940AAD0AC60A0015
:00000001FF
